{
  "_format": "hh-sol-artifact-1",
  "contractName": "Twitter",
  "sourceName": "contracts/twitter-q2.sol",
  "abi": [
    {
      "inputs": [
        {
          "internalType": "address",
          "name": "_user",
          "type": "address"
        }
      ],
      "name": "followUser",
      "outputs": [],
      "stateMutability": "nonpayable",
      "type": "function"
    },
    {
      "inputs": [
        {
          "internalType": "address",
          "name": "_user",
          "type": "address"
        }
      ],
      "name": "getConversationWithUser",
      "outputs": [
        {
          "components": [
            {
              "internalType": "uint256",
              "name": "messageId",
              "type": "uint256"
            },
            {
              "internalType": "string",
              "name": "content",
              "type": "string"
            },
            {
              "internalType": "address",
              "name": "from",
              "type": "address"
            },
            {
              "internalType": "address",
              "name": "to",
              "type": "address"
            }
          ],
          "internalType": "struct Twitter.Message[]",
          "name": "",
          "type": "tuple[]"
        }
      ],
      "stateMutability": "view",
      "type": "function"
    },
    {
      "inputs": [],
      "name": "getFollowers",
      "outputs": [
        {
          "internalType": "address[]",
          "name": "",
          "type": "address[]"
        }
      ],
      "stateMutability": "view",
      "type": "function"
    },
    {
      "inputs": [],
      "name": "getFollowing",
      "outputs": [
        {
          "internalType": "address[]",
          "name": "",
          "type": "address[]"
        }
      ],
      "stateMutability": "view",
      "type": "function"
    },
    {
      "inputs": [],
      "name": "getTweetFeed",
      "outputs": [
        {
          "components": [
            {
              "internalType": "uint256",
              "name": "tweetId",
              "type": "uint256"
            },
            {
              "internalType": "address",
              "name": "author",
              "type": "address"
            },
            {
              "internalType": "string",
              "name": "content",
              "type": "string"
            },
            {
              "internalType": "uint256",
              "name": "createdAt",
              "type": "uint256"
            }
          ],
          "internalType": "struct Twitter.Tweet[]",
          "name": "",
          "type": "tuple[]"
        }
      ],
      "stateMutability": "view",
      "type": "function"
    },
    {
      "inputs": [
        {
          "internalType": "uint256",
          "name": "_tweetId",
          "type": "uint256"
        }
      ],
      "name": "likeTweet",
      "outputs": [],
      "stateMutability": "nonpayable",
      "type": "function"
    },
    {
      "inputs": [],
      "name": "nextMessageId",
      "outputs": [
        {
          "internalType": "uint256",
          "name": "",
          "type": "uint256"
        }
      ],
      "stateMutability": "view",
      "type": "function"
    },
    {
      "inputs": [],
      "name": "nextTweetId",
      "outputs": [
        {
          "internalType": "uint256",
          "name": "",
          "type": "uint256"
        }
      ],
      "stateMutability": "view",
      "type": "function"
    },
    {
      "inputs": [
        {
          "internalType": "string",
          "name": "_content",
          "type": "string"
        }
      ],
      "name": "postTweet",
      "outputs": [],
      "stateMutability": "nonpayable",
      "type": "function"
    },
    {
      "inputs": [
        {
          "internalType": "address",
          "name": "_user",
          "type": "address"
        }
      ],
      "name": "readTweets",
      "outputs": [
        {
          "components": [
            {
              "internalType": "uint256",
              "name": "tweetId",
              "type": "uint256"
            },
            {
              "internalType": "address",
              "name": "author",
              "type": "address"
            },
            {
              "internalType": "string",
              "name": "content",
              "type": "string"
            },
            {
              "internalType": "uint256",
              "name": "createdAt",
              "type": "uint256"
            }
          ],
          "internalType": "struct Twitter.Tweet[]",
          "name": "",
          "type": "tuple[]"
        }
      ],
      "stateMutability": "view",
      "type": "function"
    },
    {
      "inputs": [
        {
          "internalType": "string",
          "name": "_name",
          "type": "string"
        }
      ],
      "name": "registerAccount",
      "outputs": [],
      "stateMutability": "nonpayable",
      "type": "function"
    },
    {
      "inputs": [
        {
          "internalType": "address",
          "name": "_recipient",
          "type": "address"
        },
        {
          "internalType": "string",
          "name": "_content",
          "type": "string"
        }
      ],
      "name": "sendMessage",
      "outputs": [],
      "stateMutability": "nonpayable",
      "type": "function"
    },
    {
      "inputs": [
        {
          "internalType": "uint256",
          "name": "",
          "type": "uint256"
        }
      ],
      "name": "tweets",
      "outputs": [
        {
          "internalType": "uint256",
          "name": "tweetId",
          "type": "uint256"
        },
        {
          "internalType": "address",
          "name": "author",
          "type": "address"
        },
        {
          "internalType": "string",
          "name": "content",
          "type": "string"
        },
        {
          "internalType": "uint256",
          "name": "createdAt",
          "type": "uint256"
        }
      ],
      "stateMutability": "view",
      "type": "function"
    },
    {
      "inputs": [
        {
          "internalType": "address",
          "name": "_user",
          "type": "address"
        }
      ],
      "name": "unfollowUser",
      "outputs": [],
      "stateMutability": "nonpayable",
      "type": "function"
    },
    {
      "inputs": [
        {
          "internalType": "address",
          "name": "",
          "type": "address"
        }
      ],
      "name": "users",
      "outputs": [
        {
          "internalType": "address",
          "name": "wallet",
          "type": "address"
        },
        {
          "internalType": "string",
          "name": "name",
          "type": "string"
        }
      ],
      "stateMutability": "view",
      "type": "function"
    }
  ],
  "bytecode": "0x608060405234801561001057600080fd5b50613026806100206000396000f3fe608060405234801561001057600080fd5b50600436106100f55760003560e01c80638076e02b11610097578063de6f24bb11610066578063de6f24bb14610273578063e8d857b01461028f578063eefbf17e146102c2578063f107cfcb146102e0576100f5565b80638076e02b146101ec578063a70806f71461020a578063a87430ba14610226578063bff6de2014610257576100f5565b8063495b8c29116100d3578063495b8c29146101525780635ffc6ceb1461017057806371c85b8d1461018c57806375d92f53146101bc576100f5565b80630cbc3dc4146100fa5780630d79f5611461011657806323f1470214610134575b600080fd5b610114600480360381019061010f91906125aa565b6102fc565b005b61011e6105b7565b60405161012b91906126e7565b60405180910390f35b61013c6107a0565b60405161014991906126e7565b60405180910390f35b61015a610989565b60405161016791906128e0565b60405180910390f35b61018a6004803603810190610185919061292e565b610b45565b005b6101a660048036038101906101a19190612987565b610e06565b6040516101b391906128e0565b60405180910390f35b6101d660048036038101906101d19190612987565b61102b565b6040516101e39190612ad9565b60405180910390f35b6101f4611256565b6040516102019190612b0a565b60405180910390f35b610224600480360381019061021f9190612987565b61125c565b005b610240600480360381019061023b9190612987565b6115e7565b60405161024e929190612b7e565b60405180910390f35b610271600480360381019061026c91906125aa565b6116b3565b005b61028d60048036038101906102889190612bae565b611797565b005b6102a960048036038101906102a4919061292e565b611d4e565b6040516102b99493929190612c0e565b60405180910390f35b6102ca611e26565b6040516102d79190612b0a565b60405180910390f35b6102fa60048036038101906102f59190612987565b611e2c565b005b3360008060008373ffffffffffffffffffffffffffffffffffffffff1673ffffffffffffffffffffffffffffffffffffffff1681526020019081526020016000209050600081600101805461035090612c89565b80601f016020809104026020016040519081016040528092919081815260200182805461037c90612c89565b80156103c95780601f1061039e576101008083540402835291602001916103c9565b820191906000526020600020905b8154815290600101906020018083116103ac57829003601f168201915b50505050509050600081511415610415576040517f08c379a000000000000000000000000000000000000000000000000000000000815260040161040c90612d2d565b60405180910390fd5b6000604051806080016040528060025481526020013373ffffffffffffffffffffffffffffffffffffffff16815260200187878080601f016020809104026020016040519081016040528093929190818152602001838380828437600081840152601f19601f820116905080830192505050505050508152602001428152509050806001600060025481526020019081526020016000206000820151816000015560208201518160010160006101000a81548173ffffffffffffffffffffffffffffffffffffffff021916908373ffffffffffffffffffffffffffffffffffffffff16021790555060408201518160020190805190602001906105199291906123d4565b506060820151816003015590505060008060003373ffffffffffffffffffffffffffffffffffffffff1673ffffffffffffffffffffffffffffffffffffffff1681526020019081526020016000209050806002016002549080600181540180825580915050600190039060005260206000200160009091909190915055600260008154809291906105a990612d7c565b919050555050505050505050565b60603360008060008373ffffffffffffffffffffffffffffffffffffffff1673ffffffffffffffffffffffffffffffffffffffff1681526020019081526020016000209050600081600101805461060d90612c89565b80601f016020809104026020016040519081016040528092919081815260200182805461063990612c89565b80156106865780601f1061065b57610100808354040283529160200191610686565b820191906000526020600020905b81548152906001019060200180831161066957829003601f168201915b505050505090506000815114156106d2576040517f08c379a00000000000000000000000000000000000000000000000000000000081526004016106c990612d2d565b60405180910390fd5b6000803373ffffffffffffffffffffffffffffffffffffffff1673ffffffffffffffffffffffffffffffffffffffff16815260200190815260200160002060040180548060200260200160405190810160405280929190818152602001828054801561079357602002820191906000526020600020905b8160009054906101000a900473ffffffffffffffffffffffffffffffffffffffff1673ffffffffffffffffffffffffffffffffffffffff1681526020019060010190808311610749575b5050505050935050505090565b60603360008060008373ffffffffffffffffffffffffffffffffffffffff1673ffffffffffffffffffffffffffffffffffffffff168152602001908152602001600020905060008160010180546107f690612c89565b80601f016020809104026020016040519081016040528092919081815260200182805461082290612c89565b801561086f5780601f106108445761010080835404028352916020019161086f565b820191906000526020600020905b81548152906001019060200180831161085257829003601f168201915b505050505090506000815114156108bb576040517f08c379a00000000000000000000000000000000000000000000000000000000081526004016108b290612d2d565b60405180910390fd5b6000803373ffffffffffffffffffffffffffffffffffffffff1673ffffffffffffffffffffffffffffffffffffffff16815260200190815260200160002060030180548060200260200160405190810160405280929190818152602001828054801561097c57602002820191906000526020600020905b8160009054906101000a900473ffffffffffffffffffffffffffffffffffffffff1673ffffffffffffffffffffffffffffffffffffffff1681526020019060010190808311610932575b5050505050935050505090565b6060600060025467ffffffffffffffff8111156109a9576109a8612dc5565b5b6040519080825280602002602001820160405280156109e257816020015b6109cf61245a565b8152602001906001900390816109c75790505b50905060005b600254811015610b3d5760016000828152602001908152602001600020604051806080016040529081600082015481526020016001820160009054906101000a900473ffffffffffffffffffffffffffffffffffffffff1673ffffffffffffffffffffffffffffffffffffffff1673ffffffffffffffffffffffffffffffffffffffff168152602001600282018054610a8090612c89565b80601f0160208091040260200160405190810160405280929190818152602001828054610aac90612c89565b8015610af95780601f10610ace57610100808354040283529160200191610af9565b820191906000526020600020905b815481529060010190602001808311610adc57829003601f168201915b50505050508152602001600382015481525050828281518110610b1f57610b1e612df4565b5b60200260200101819052508080610b3590612d7c565b9150506109e8565b508091505090565b3360008060008373ffffffffffffffffffffffffffffffffffffffff1673ffffffffffffffffffffffffffffffffffffffff16815260200190815260200160002090506000816001018054610b9990612c89565b80601f0160208091040260200160405190810160405280929190818152602001828054610bc590612c89565b8015610c125780601f10610be757610100808354040283529160200191610c12565b820191906000526020600020905b815481529060010190602001808311610bf557829003601f168201915b50505050509050600081511415610c5e576040517f08c379a0000000000000000000000000000000000000000000000000000000008152600401610c5590612d2d565b60405180910390fd5b60006001600086815260200190815260200160002090503373ffffffffffffffffffffffffffffffffffffffff168160010160009054906101000a900473ffffffffffffffffffffffffffffffffffffffff1673ffffffffffffffffffffffffffffffffffffffff161415610d08576040517f08c379a0000000000000000000000000000000000000000000000000000000008152600401610cff90612e6f565b60405180910390fd5b60008060003373ffffffffffffffffffffffffffffffffffffffff1673ffffffffffffffffffffffffffffffffffffffff168152602001908152602001600020905060005b8160020180549050811015610dd25786826002018281548110610d7357610d72612df4565b5b90600052602060002001541415610dbf576040517f08c379a0000000000000000000000000000000000000000000000000000000008152600401610db690612f01565b60405180910390fd5b8080610dca90612d7c565b915050610d4d565b5080600201869080600181540180825580915050600190039060005260206000200160009091909190915055505050505050565b606060008060008473ffffffffffffffffffffffffffffffffffffffff1673ffffffffffffffffffffffffffffffffffffffff16815260200190815260200160002060020190506000818054905067ffffffffffffffff811115610e6d57610e6c612dc5565b5b604051908082528060200260200182016040528015610ea657816020015b610e9361245a565b815260200190600190039081610e8b5790505b50905060005b82805490508110156110205760016000848381548110610ecf57610ece612df4565b5b90600052602060002001548152602001908152602001600020604051806080016040529081600082015481526020016001820160009054906101000a900473ffffffffffffffffffffffffffffffffffffffff1673ffffffffffffffffffffffffffffffffffffffff1673ffffffffffffffffffffffffffffffffffffffff168152602001600282018054610f6390612c89565b80601f0160208091040260200160405190810160405280929190818152602001828054610f8f90612c89565b8015610fdc5780601f10610fb157610100808354040283529160200191610fdc565b820191906000526020600020905b815481529060010190602001808311610fbf57829003601f168201915b5050505050815260200160038201548152505082828151811061100257611001612df4565b5b6020026020010181905250808061101890612d7c565b915050610eac565b508092505050919050565b606060008060003373ffffffffffffffffffffffffffffffffffffffff1673ffffffffffffffffffffffffffffffffffffffff16815260200190815260200160002090508060050160008473ffffffffffffffffffffffffffffffffffffffff1673ffffffffffffffffffffffffffffffffffffffff168152602001908152602001600020805480602002602001604051908101604052809291908181526020016000905b8282101561124a57838290600052602060002090600402016040518060800160405290816000820154815260200160018201805461110d90612c89565b80601f016020809104026020016040519081016040528092919081815260200182805461113990612c89565b80156111865780601f1061115b57610100808354040283529160200191611186565b820191906000526020600020905b81548152906001019060200180831161116957829003601f168201915b505050505081526020016002820160009054906101000a900473ffffffffffffffffffffffffffffffffffffffff1673ffffffffffffffffffffffffffffffffffffffff1673ffffffffffffffffffffffffffffffffffffffff1681526020016003820160009054906101000a900473ffffffffffffffffffffffffffffffffffffffff1673ffffffffffffffffffffffffffffffffffffffff1673ffffffffffffffffffffffffffffffffffffffff1681525050815260200190600101906110d0565b50505050915050919050565b60025481565b8060008060008373ffffffffffffffffffffffffffffffffffffffff1673ffffffffffffffffffffffffffffffffffffffff168152602001908152602001600020905060008160010180546112b090612c89565b80601f01602080910402602001604051908101604052809291908181526020018280546112dc90612c89565b80156113295780601f106112fe57610100808354040283529160200191611329565b820191906000526020600020905b81548152906001019060200180831161130c57829003601f168201915b50505050509050600081511415611375576040517f08c379a000000000000000000000000000000000000000000000000000000000815260040161136c90612d2d565b60405180910390fd5b3360008060008373ffffffffffffffffffffffffffffffffffffffff1673ffffffffffffffffffffffffffffffffffffffff168152602001908152602001600020905060008160010180546113c990612c89565b80601f01602080910402602001604051908101604052809291908181526020018280546113f590612c89565b80156114425780601f1061141757610100808354040283529160200191611442565b820191906000526020600020905b81548152906001019060200180831161142557829003601f168201915b5050505050905060008151141561148e576040517f08c379a000000000000000000000000000000000000000000000000000000000815260040161148590612d2d565b60405180910390fd5b60008060003373ffffffffffffffffffffffffffffffffffffffff1673ffffffffffffffffffffffffffffffffffffffff168152602001908152602001600020905080600301889080600181540180825580915050600190039060005260206000200160009091909190916101000a81548173ffffffffffffffffffffffffffffffffffffffff021916908373ffffffffffffffffffffffffffffffffffffffff16021790555060008060008a73ffffffffffffffffffffffffffffffffffffffff1673ffffffffffffffffffffffffffffffffffffffff168152602001908152602001600020905080600401339080600181540180825580915050600190039060005260206000200160009091909190916101000a81548173ffffffffffffffffffffffffffffffffffffffff021916908373ffffffffffffffffffffffffffffffffffffffff160217905550505050505050505050565b60006020528060005260406000206000915090508060000160009054906101000a900473ffffffffffffffffffffffffffffffffffffffff169080600101805461163090612c89565b80601f016020809104026020016040519081016040528092919081815260200182805461165c90612c89565b80156116a95780601f1061167e576101008083540402835291602001916116a9565b820191906000526020600020905b81548152906001019060200180831161168c57829003601f168201915b5050505050905082565b600082829050116116f9576040517f08c379a00000000000000000000000000000000000000000000000000000000081526004016116f090612f6d565b60405180910390fd5b60008060003373ffffffffffffffffffffffffffffffffffffffff1673ffffffffffffffffffffffffffffffffffffffff1681526020019081526020016000209050338160000160006101000a81548173ffffffffffffffffffffffffffffffffffffffff021916908373ffffffffffffffffffffffffffffffffffffffff1602179055508282826001019190611791929190612498565b50505050565b3360008060008373ffffffffffffffffffffffffffffffffffffffff1673ffffffffffffffffffffffffffffffffffffffff168152602001908152602001600020905060008160010180546117eb90612c89565b80601f016020809104026020016040519081016040528092919081815260200182805461181790612c89565b80156118645780601f1061183957610100808354040283529160200191611864565b820191906000526020600020905b81548152906001019060200180831161184757829003601f168201915b505050505090506000815114156118b0576040517f08c379a00000000000000000000000000000000000000000000000000000000081526004016118a790612d2d565b60405180910390fd5b8560008060008373ffffffffffffffffffffffffffffffffffffffff1673ffffffffffffffffffffffffffffffffffffffff1681526020019081526020016000209050600081600101805461190490612c89565b80601f016020809104026020016040519081016040528092919081815260200182805461193090612c89565b801561197d5780601f106119525761010080835404028352916020019161197d565b820191906000526020600020905b81548152906001019060200180831161196057829003601f168201915b505050505090506000815114156119c9576040517f08c379a00000000000000000000000000000000000000000000000000000000081526004016119c090612d2d565b60405180910390fd5b6000604051806080016040528060035481526020018a8a8080601f016020809104026020016040519081016040528093929190818152602001838380828437600081840152601f19601f8201169050808301925050505050505081526020013373ffffffffffffffffffffffffffffffffffffffff1681526020018b73ffffffffffffffffffffffffffffffffffffffff16815250905060008060003373ffffffffffffffffffffffffffffffffffffffff1673ffffffffffffffffffffffffffffffffffffffff16815260200190815260200160002090508060050160008c73ffffffffffffffffffffffffffffffffffffffff1673ffffffffffffffffffffffffffffffffffffffff168152602001908152602001600020829080600181540180825580915050600190039060005260206000209060040201600090919091909150600082015181600001556020820151816001019080519060200190611b339291906123d4565b5060408201518160020160006101000a81548173ffffffffffffffffffffffffffffffffffffffff021916908373ffffffffffffffffffffffffffffffffffffffff16021790555060608201518160030160006101000a81548173ffffffffffffffffffffffffffffffffffffffff021916908373ffffffffffffffffffffffffffffffffffffffff160217905550505060008060008d73ffffffffffffffffffffffffffffffffffffffff1673ffffffffffffffffffffffffffffffffffffffff16815260200190815260200160002090508060050160003373ffffffffffffffffffffffffffffffffffffffff1673ffffffffffffffffffffffffffffffffffffffff168152602001908152602001600020839080600181540180825580915050600190039060005260206000209060040201600090919091909150600082015181600001556020820151816001019080519060200190611c979291906123d4565b5060408201518160020160006101000a81548173ffffffffffffffffffffffffffffffffffffffff021916908373ffffffffffffffffffffffffffffffffffffffff16021790555060608201518160030160006101000a81548173ffffffffffffffffffffffffffffffffffffffff021916908373ffffffffffffffffffffffffffffffffffffffff160217905550505060036000815480929190611d3b90612d7c565b9190505550505050505050505050505050565b60016020528060005260406000206000915090508060000154908060010160009054906101000a900473ffffffffffffffffffffffffffffffffffffffff1690806002018054611d9d90612c89565b80601f0160208091040260200160405190810160405280929190818152602001828054611dc990612c89565b8015611e165780601f10611deb57610100808354040283529160200191611e16565b820191906000526020600020905b815481529060010190602001808311611df957829003601f168201915b5050505050908060030154905084565b60035481565b8060008060008373ffffffffffffffffffffffffffffffffffffffff1673ffffffffffffffffffffffffffffffffffffffff16815260200190815260200160002090506000816001018054611e8090612c89565b80601f0160208091040260200160405190810160405280929190818152602001828054611eac90612c89565b8015611ef95780601f10611ece57610100808354040283529160200191611ef9565b820191906000526020600020905b815481529060010190602001808311611edc57829003601f168201915b50505050509050600081511415611f45576040517f08c379a0000000000000000000000000000000000000000000000000000000008152600401611f3c90612d2d565b60405180910390fd5b3360008060008373ffffffffffffffffffffffffffffffffffffffff1673ffffffffffffffffffffffffffffffffffffffff16815260200190815260200160002090506000816001018054611f9990612c89565b80601f0160208091040260200160405190810160405280929190818152602001828054611fc590612c89565b80156120125780601f10611fe757610100808354040283529160200191612012565b820191906000526020600020905b815481529060010190602001808311611ff557829003601f168201915b5050505050905060008151141561205e576040517f08c379a000000000000000000000000000000000000000000000000000000000815260040161205590612d2d565b60405180910390fd5b60008060003373ffffffffffffffffffffffffffffffffffffffff1673ffffffffffffffffffffffffffffffffffffffff168152602001908152602001600020905060006120af8983600301612324565b905081600301805490508110156121bc5781600301600183600301805490506120d89190612f8d565b815481106120e9576120e8612df4565b5b9060005260206000200160009054906101000a900473ffffffffffffffffffffffffffffffffffffffff1682600301828154811061212a57612129612df4565b5b9060005260206000200160006101000a81548173ffffffffffffffffffffffffffffffffffffffff021916908373ffffffffffffffffffffffffffffffffffffffff1602179055508160030180548061218657612185612fc1565b5b6001900381819060005260206000200160006101000a81549073ffffffffffffffffffffffffffffffffffffffff021916905590555b60008060008b73ffffffffffffffffffffffffffffffffffffffff1673ffffffffffffffffffffffffffffffffffffffff168152602001908152602001600020905061220b3382600401612324565b915080600401805490508210156123185780600401600182600401805490506122349190612f8d565b8154811061224557612244612df4565b5b9060005260206000200160009054906101000a900473ffffffffffffffffffffffffffffffffffffffff1681600401838154811061228657612285612df4565b5b9060005260206000200160006101000a81548173ffffffffffffffffffffffffffffffffffffffff021916908373ffffffffffffffffffffffffffffffffffffffff160217905550806004018054806122e2576122e1612fc1565b5b6001900381819060005260206000200160006101000a81549073ffffffffffffffffffffffffffffffffffffffff021916905590555b50505050505050505050565b600080600090505b82805490508110156123c5578373ffffffffffffffffffffffffffffffffffffffff1683828154811061236257612361612df4565b5b9060005260206000200160009054906101000a900473ffffffffffffffffffffffffffffffffffffffff1673ffffffffffffffffffffffffffffffffffffffff1614156123b257809150506123ce565b80806123bd90612d7c565b91505061232c565b50818054905090505b92915050565b8280546123e090612c89565b90600052602060002090601f0160209004810192826124025760008555612449565b82601f1061241b57805160ff1916838001178555612449565b82800160010185558215612449579182015b8281111561244857825182559160200191906001019061242d565b5b509050612456919061251e565b5090565b604051806080016040528060008152602001600073ffffffffffffffffffffffffffffffffffffffff16815260200160608152602001600081525090565b8280546124a490612c89565b90600052602060002090601f0160209004810192826124c6576000855561250d565b82601f106124df57803560ff191683800117855561250d565b8280016001018555821561250d579182015b8281111561250c5782358255916020019190600101906124f1565b5b50905061251a919061251e565b5090565b5b8082111561253757600081600090555060010161251f565b5090565b600080fd5b600080fd5b600080fd5b600080fd5b600080fd5b60008083601f84011261256a57612569612545565b5b8235905067ffffffffffffffff8111156125875761258661254a565b5b6020830191508360018202830111156125a3576125a261254f565b5b9250929050565b600080602083850312156125c1576125c061253b565b5b600083013567ffffffffffffffff8111156125df576125de612540565b5b6125eb85828601612554565b92509250509250929050565b600081519050919050565b600082825260208201905092915050565b6000819050602082019050919050565b600073ffffffffffffffffffffffffffffffffffffffff82169050919050565b600061264e82612623565b9050919050565b61265e81612643565b82525050565b60006126708383612655565b60208301905092915050565b6000602082019050919050565b6000612694826125f7565b61269e8185612602565b93506126a983612613565b8060005b838110156126da5781516126c18882612664565b97506126cc8361267c565b9250506001810190506126ad565b5085935050505092915050565b600060208201905081810360008301526127018184612689565b905092915050565b600081519050919050565b600082825260208201905092915050565b6000819050602082019050919050565b6000819050919050565b61274881612735565b82525050565b600081519050919050565b600082825260208201905092915050565b60005b8381101561278857808201518184015260208101905061276d565b83811115612797576000848401525b50505050565b6000601f19601f8301169050919050565b60006127b98261274e565b6127c38185612759565b93506127d381856020860161276a565b6127dc8161279d565b840191505092915050565b60006080830160008301516127ff600086018261273f565b5060208301516128126020860182612655565b506040830151848203604086015261282a82826127ae565b915050606083015161283f606086018261273f565b508091505092915050565b600061285683836127e7565b905092915050565b6000602082019050919050565b600061287682612709565b6128808185612714565b93508360208202850161289285612725565b8060005b858110156128ce57848403895281516128af858261284a565b94506128ba8361285e565b925060208a01995050600181019050612896565b50829750879550505050505092915050565b600060208201905081810360008301526128fa818461286b565b905092915050565b61290b81612735565b811461291657600080fd5b50565b60008135905061292881612902565b92915050565b6000602082840312156129445761294361253b565b5b600061295284828501612919565b91505092915050565b61296481612643565b811461296f57600080fd5b50565b6000813590506129818161295b565b92915050565b60006020828403121561299d5761299c61253b565b5b60006129ab84828501612972565b91505092915050565b600081519050919050565b600082825260208201905092915050565b6000819050602082019050919050565b60006080830160008301516129f8600086018261273f565b5060208301518482036020860152612a1082826127ae565b9150506040830151612a256040860182612655565b506060830151612a386060860182612655565b508091505092915050565b6000612a4f83836129e0565b905092915050565b6000602082019050919050565b6000612a6f826129b4565b612a7981856129bf565b935083602082028501612a8b856129d0565b8060005b85811015612ac75784840389528151612aa88582612a43565b9450612ab383612a57565b925060208a01995050600181019050612a8f565b50829750879550505050505092915050565b60006020820190508181036000830152612af38184612a64565b905092915050565b612b0481612735565b82525050565b6000602082019050612b1f6000830184612afb565b92915050565b612b2e81612643565b82525050565b600082825260208201905092915050565b6000612b508261274e565b612b5a8185612b34565b9350612b6a81856020860161276a565b612b738161279d565b840191505092915050565b6000604082019050612b936000830185612b25565b8181036020830152612ba58184612b45565b90509392505050565b600080600060408486031215612bc757612bc661253b565b5b6000612bd586828701612972565b935050602084013567ffffffffffffffff811115612bf657612bf5612540565b5b612c0286828701612554565b92509250509250925092565b6000608082019050612c236000830187612afb565b612c306020830186612b25565b8181036040830152612c428185612b45565b9050612c516060830184612afb565b95945050505050565b7f4e487b7100000000000000000000000000000000000000000000000000000000600052602260045260246000fd5b60006002820490506001821680612ca157607f821691505b60208210811415612cb557612cb4612c5a565b5b50919050565b7f546869732077616c6c657420646f6573206e6f742062656c6f6e6720746f206160008201527f6e79206163636f756e742e000000000000000000000000000000000000000000602082015250565b6000612d17602b83612b34565b9150612d2282612cbb565b604082019050919050565b60006020820190508181036000830152612d4681612d0a565b9050919050565b7f4e487b7100000000000000000000000000000000000000000000000000000000600052601160045260246000fd5b6000612d8782612735565b91507fffffffffffffffffffffffffffffffffffffffffffffffffffffffffffffffff821415612dba57612db9612d4d565b5b600182019050919050565b7f4e487b7100000000000000000000000000000000000000000000000000000000600052604160045260246000fd5b7f4e487b7100000000000000000000000000000000000000000000000000000000600052603260045260246000fd5b7f596f752063616e2774206c696b6520796f7572206f776e207477656574000000600082015250565b6000612e59601d83612b34565b9150612e6482612e23565b602082019050919050565b60006020820190508181036000830152612e8881612e4c565b9050919050565b7f596f75206861766520616c7265616479206c696b65642074686973207477656560008201527f7400000000000000000000000000000000000000000000000000000000000000602082015250565b6000612eeb602183612b34565b9150612ef682612e8f565b604082019050919050565b60006020820190508181036000830152612f1a81612ede565b9050919050565b7f4e616d652063616e6e6f7420626520616e20656d70747920737472696e670000600082015250565b6000612f57601e83612b34565b9150612f6282612f21565b602082019050919050565b60006020820190508181036000830152612f8681612f4a565b9050919050565b6000612f9882612735565b9150612fa383612735565b925082821015612fb657612fb5612d4d565b5b828203905092915050565b7f4e487b7100000000000000000000000000000000000000000000000000000000600052603160045260246000fdfea26469706673582212204411ad255692e536216c97466eb815e814b466e3d2254ddb7de342f2483734b164736f6c63430008090033",
  "linkReferences": {},
  "deployedLinkReferences": {}
}